C51 COMPILER V9.59.0.0   ADC                                                               05/30/2021 13:10:10 PAGE 1   


C51 COMPILER V9.59.0.0, COMPILATION OF MODULE ADC
OBJECT MODULE PLACED IN .\Objects\adc.obj
COMPILER INVOKED BY: C:\Keil_v5\C51\BIN\C51.EXE adc.c OPTIMIZE(8,SPEED) BROWSE INCDIR(C:\Keil_v5\C51\INC\SiLABS\shared\s
                    -i8051Base\;..\FlashMe) DEFINE(SYSCLK=24500000) DEBUG OBJECTEXTEND PRINT(.\Listings\adc.lst) TABS(2) OBJECT(.\Objects\adc
                    -.obj)

line level    source

   1          #include "si_toolchain.h"
   2          #include "C8051F330_defs.h"
   3          #include "adc.h"
   4          #include "lib.h"
   5          
   6          #define VREF (33)
   7          
   8          void Adc_Init(void)
   9          {
  10   1        ADC0CN = 0x02;                      // ADC0 disabled, normal tracking,
  11   1                                           // conversion triggered on TMR2 overflow
  12   1      
  13   1        REF0CN = 0x0A;                      // Enable VREF
  14   1      
  15   1        AMX0P     = 0x08;
  16   1        AMX0N     = 0x11;
  17   1      
  18   1        /* Init ADC  */
  19   1        ADC0CF = ((SYSCLK/3000000)-1)<<3;  // Set SAR clock to 3MHz
  20   1        ADC0CF |= 0x01;                     // PGA gain = 1
  21   1        ADC0CN =  0X80;
  22   1        AD0EN=1; 
  23   1      }
  24          
  25          void Adc_SetPort(int port)
  26          {
  27   1          AD0EN =   0; 
  28   1          AMX0P     = port;
  29   1          AD0EN =   1; 
  30   1          delay_ms(1);
  31   1      }
  32          
  33          // x10
  34          unsigned int Adc_Read(void)
  35          {
  36   1        unsigned int adval;
  37   1        unsigned int volts = 0;
  38   1        
  39   1        AD0BUSY = 1;             /*  Start ADC 0 conversion                       */
  40   1        while (AD0BUSY);         /*  Wait for conversion                          */
  41   1        
  42   1        /* Read 0-1024 value in ADC0 */
  43   1        adval = ADC0L + (ADC0H << 8);
  44   1      
  45   1        volts = (unsigned int)(((adval * VREF * 100UL) >> 10UL) / 100);
  46   1      
  47   1        return volts;
  48   1      }


MODULE INFORMATION:   STATIC OVERLAYABLE
   CODE SIZE        =     83    ----
   CONSTANT SIZE    =   ----    ----
C51 COMPILER V9.59.0.0   ADC                                                               05/30/2021 13:10:10 PAGE 2   

   XDATA SIZE       =   ----    ----
   PDATA SIZE       =   ----    ----
   DATA SIZE        =   ----    ----
   IDATA SIZE       =   ----    ----
   BIT SIZE         =   ----    ----
END OF MODULE INFORMATION.


C51 COMPILATION COMPLETE.  0 WARNING(S),  0 ERROR(S)
