C51 COMPILER V9.59.0.0   CONSOLE                                                           05/23/2021 15:49:40 PAGE 1   


C51 COMPILER V9.59.0.0, COMPILATION OF MODULE CONSOLE
OBJECT MODULE PLACED IN .\Objects\console.obj
COMPILER INVOKED BY: C:\Keil_v5\C51\BIN\C51.EXE console.c OPTIMIZE(8,SPEED) BROWSE INCDIR(C:\Keil_v5\C51\INC\SiLABS\shar
                    -ed\si8051Base\;..\FlashMe) DEFINE(SYSCLK=24500000) DEBUG OBJECTEXTEND PRINT(.\Listings\console.lst) TABS(2) OBJECT(.\Obj
                    -ects\console.obj)

line level    source

   1          /*
   2           * Copyright (c) 2020, yifengling0. All rights reserved.
   3           *
   4           * Redistribution and use in source and binary forms, with or without
   5           * modification, are permitted provided that the following conditions
   6           * are met:
   7           *
   8           * 1. Redistributions of source code must retain the above copyright
   9           *    notice, this list of conditions and the following disclaimer.
  10           * 2. Redistributions in binary form must reproduce the above copyright
  11           *    notice, this list of conditions and the following disclaimer in the
  12           *    documentation and/or other materials provided with the distribution.
  13           * 3. No personal names or organizations' names associated with the
  14           *    Atomthreads project may be used to endorse or promote products
  15           *    derived from this software without specific prior written permission.
  16           *
  17           * THIS SOFTWARE IS PROVIDED BY THE ATOMTHREADS PROJECT AND CONTRIBUTORS
  18           * "AS IS" AND ANY EXPRESS OR IMPLIED WARRANTIES, INCLUDING, BUT NOT LIMITED
  19           * TO, THE IMPLIED WARRANTIES OF MERCHANTABILITY AND FITNESS FOR A PARTICULAR
  20           * PURPOSE ARE DISCLAIMED. IN NO EVENT SHALL THE PROJECT OR CONTRIBUTORS BE
  21           * LIABLE FOR ANY DIRECT, INDIRECT, INCIDENTAL, SPECIAL, EXEMPLARY, OR
  22           * CONSEQUENTIAL DAMAGES (INCLUDING, BUT NOT LIMITED TO, PROCUREMENT OF
  23           * SUBSTITUTE GOODS OR SERVICES; LOSS OF USE, DATA, OR PROFITS; OR BUSINESS
  24           * INTERRUPTION) HOWEVER CAUSED AND ON ANY THEORY OF LIABILITY, WHETHER IN
  25           * CONTRACT, STRICT LIABILITY, OR TORT (INCLUDING NEGLIGENCE OR OTHERWISE)
  26           * ARISING IN ANY WAY OUT OF THE USE OF THIS SOFTWARE, EVEN IF ADVISED OF THE
  27           * POSSIBILITY OF SUCH DAMAGE.
  28           */
  29          
  30          
  31          #include <stdio.h>
  32          #include "console.h"
  33          #include <string.h>
  34          #include "sio.h"
  35          
  36          
  37          #define MAX_PARAM_COUNT (5)
  38          
  39          SLIST_HEAD(Pool, Node);
  40          static struct Pool xdata _header;
  41          
  42          static char* xdata _parameters[MAX_PARAM_COUNT] = { NULL };
  43          
  44          
  45          
  46          static enConsoleResult none(int argc, char** argv)
  47          {
  48   1        return CE_OK;
  49   1      }
*** WARNING C280 IN LINE 46 OF console.c: 'argc': unreferenced local variable
*** WARNING C280 IN LINE 46 OF console.c: 'argv': unreferenced local variable
  50          
  51          
C51 COMPILER V9.59.0.0   CONSOLE                                                           05/23/2021 15:49:40 PAGE 2   

  52          static const COMMAND _noneCommand = {
  53            DEFAULT_NODE,
  54            "",
  55            none,
  56          };
  57          
  58          /* Application threads' TCBs */
  59          #define CMD_LEN (32)
  60          typedef struct _tCommand {
  61            char buffer[CMD_LEN];
  62            int index;
  63          }tCommand;
  64          
  65          static tCommand xdata _command;
  66          
  67          void ConsoleInit()
  68          {
  69   1        _command.index = 0;
  70   1        memset(_command.buffer, 0, CMD_LEN);
  71   1      
  72   1        SLIST_INIT(&_header);
  73   1        SLIST_INSERT_HEAD(&_header, (Node*)&_noneCommand, node);
  74   1      }
  75          
  76          void ConsoleRun()
  77          {
  78   1        enConsoleResult result;
  79   1      
  80   1        char c = com_getchar();
  81   1        if( c != -1 ){
  82   2          if (c == 0x0d) {
  83   3            printf("\r\n");
  84   3            result = ConsoleInput(_command.buffer);
  85   3            memset(_command.buffer, 0, CMD_LEN);
  86   3            _command.index = 0;
  87   3          }
  88   2          else {
  89   3            _command.buffer[_command.index] = c;
  90   3            _command.index++;
  91   3          }
  92   2        }
  93   1      }
  94          
  95          void ConsoleRegCmd(PCOMMAND cmd)
  96          {
  97   1        SLIST_INSERT_HEAD(&_header, (Node*)cmd, node);
  98   1      }
  99          
 100          static enConsoleResult RunCommand(int argc, char** argv)
 101          {
 102   1        enConsoleResult ret = CE_NOT_FOUND;
 103   1        Node* item;
 104   1      
 105   1        SLIST_FOREACH(item, &_header, node) {
 106   2          COMMAND* cmd = (COMMAND*)item;
 107   2          if (strcmp(cmd->name, argv[0]) == 0) {
 108   3            ret = cmd->action(argc, argv);
 109   3            break;
 110   3          }
 111   2        }
 112   1      
 113   1        return ret;
C51 COMPILER V9.59.0.0   CONSOLE                                                           05/23/2021 15:49:40 PAGE 3   

 114   1      }
 115          
 116          enConsoleResult ConsoleInput(char *command)
 117          {
 118   1        enConsoleResult ret;
 119   1        int count = 0;
 120   1        char* current = command;
 121   1        int remind = 0;
 122   1        char *p;
 123   1      
 124   1        for(p = command; *p != '\0'; p++){
 125   2          if (' ' == *p) {
 126   3            _parameters[count] = current;
 127   3            *p = '\0';
 128   3            current = p + 1;
 129   3            count++;
 130   3            remind = 0;
 131   3          }
 132   2          else {
 133   3            remind = 1;
 134   3          }
 135   2        }
 136   1      
 137   1        if (count == 0 || remind > 0) {
 138   2          _parameters[count] = current;
 139   2          count++;
 140   2        }
 141   1        
 142   1        ret = RunCommand(count, _parameters);
 143   1      
 144   1        return ret;
 145   1      }


MODULE INFORMATION:   STATIC OVERLAYABLE
   CODE SIZE        =    545    ----
   CONSTANT SIZE    =      4    ----
   XDATA SIZE       =     52    ----
   PDATA SIZE       =   ----    ----
   DATA SIZE        =      9      30
   IDATA SIZE       =   ----    ----
   BIT SIZE         =   ----    ----
END OF MODULE INFORMATION.


C51 COMPILATION COMPLETE.  2 WARNING(S),  0 ERROR(S)
