BL51 BANKED LINKER/LOCATER V6.22.2.0                                                    05/30/2021  15:54:49  PAGE 1


BL51 BANKED LINKER/LOCATER V6.22.2.0, INVOKED BY:
C:\KEIL_V5\C51\BIN\BL51.EXE .\Objects\STARTUP.obj, .\Objects\main.obj, .\Objects\sio.obj, .\Objects\timer.obj, .\Objects
>> \adc.obj, .\Objects\key.obj, .\Objects\console.obj, .\Objects\lib.obj TO .\Objects\FlashMe PRINT (.\Listings\FlashMe.
>> m51) RAMSIZE (256) XDATA (0X0000-0X01FF)


MEMORY MODEL: SMALL WITH FLOATING POINT ARITHMETIC


INPUT MODULES INCLUDED:
  .\Objects\STARTUP.obj (?C_STARTUP)
  .\Objects\main.obj (MAIN)
  .\Objects\sio.obj (SIO)
  .\Objects\timer.obj (TIMER)
  .\Objects\adc.obj (ADC)
  .\Objects\key.obj (KEY)
  .\Objects\console.obj (CONSOLE)
  .\Objects\lib.obj (LIB)
  C:\KEIL_V5\C51\LIB\C51FPS.LIB (?C?FPMUL)
  C:\KEIL_V5\C51\LIB\C51FPS.LIB (?C?FPDIV)
  C:\KEIL_V5\C51\LIB\C51FPS.LIB (?C?FCAST)
  C:\KEIL_V5\C51\LIB\C51FPS.LIB (?C?CASTF)
  C:\KEIL_V5\C51\LIB\C51FPS.LIB (PRINTF)
  C:\KEIL_V5\C51\LIB\C51FPS.LIB (?C?FPGETOPN)
  C:\KEIL_V5\C51\LIB\C51FPS.LIB (?C?FPROUND)
  C:\KEIL_V5\C51\LIB\C51FPS.LIB (?C?FPCONVERT)
  C:\KEIL_V5\C51\LIB\C51FPS.LIB (?C?FPADD)
  C:\KEIL_V5\C51\LIB\C51FPS.LIB (?C?FTNPWR)
  C:\KEIL_V5\C51\LIB\C51S.LIB (?C_INIT)
  C:\KEIL_V5\C51\LIB\C51S.LIB (?C?CLDPTR)
  C:\KEIL_V5\C51\LIB\C51S.LIB (?C?CLDOPTR)
  C:\KEIL_V5\C51\LIB\C51S.LIB (?C?CSTPTR)
  C:\KEIL_V5\C51\LIB\C51S.LIB (?C?IMUL)
  C:\KEIL_V5\C51\LIB\C51S.LIB (?C?ULDIV)
  C:\KEIL_V5\C51\LIB\C51S.LIB (?C?LNEG)
  C:\KEIL_V5\C51\LIB\C51S.LIB (?C?ULCMP)
  C:\KEIL_V5\C51\LIB\C51S.LIB (?C?ULSHR)
  C:\KEIL_V5\C51\LIB\C51S.LIB (?C?LLDIIDATA)
  C:\KEIL_V5\C51\LIB\C51S.LIB (?C?OFFXADD)
  C:\KEIL_V5\C51\LIB\C51S.LIB (?C?PLDIIDATA)
  C:\KEIL_V5\C51\LIB\C51S.LIB (?C?PLDPTR)
  C:\KEIL_V5\C51\LIB\C51S.LIB (?C?PSTPTR)
  C:\KEIL_V5\C51\LIB\C51S.LIB (?C?PLDOPTR)
  C:\KEIL_V5\C51\LIB\C51S.LIB (?C?CCASE)
  C:\KEIL_V5\C51\LIB\C51S.LIB (?C?ICALL)
  C:\KEIL_V5\C51\LIB\C51S.LIB (?C?LIMUL)
  C:\KEIL_V5\C51\LIB\C51S.LIB (?C?STRCMP)
  C:\KEIL_V5\C51\LIB\C51S.LIB (ATOI)
  C:\KEIL_V5\C51\LIB\C51S.LIB (?C?MEMSET)
  C:\KEIL_V5\C51\LIB\C51S.LIB (?C?PLDIDATA)
  C:\KEIL_V5\C51\LIB\C51S.LIB (?C?PSTIDATA)
  C:\KEIL_V5\C51\LIB\C51S.LIB (?C?PLDXDATA)
  C:\KEIL_V5\C51\LIB\C51S.LIB (?C?PSTXDATA)
  C:\KEIL_V5\C51\LIB\C51S.LIB (?C?PLDPDATA)
  C:\KEIL_V5\C51\LIB\C51S.LIB (?C?PSTPDATA)
  C:\KEIL_V5\C51\LIB\C51S.LIB (?C?PLDCODE)
  C:\KEIL_V5\C51\LIB\C51S.LIB (ISDIGIT)
  C:\KEIL_V5\C51\LIB\C51S.LIB (ISSPACE)
BL51 BANKED LINKER/LOCATER V6.22.2.0                                                  05/30/2021  15:54:49  PAGE 2




LINK MAP OF MODULE:  .\Objects\FlashMe (?C_STARTUP)


            TYPE    BASE      LENGTH    RELOCATION   SEGMENT NAME
            -----------------------------------------------------

            * * * * * * *   D A T A   M E M O R Y   * * * * * * *
            REG     0000H     0008H     ABSOLUTE     "REG BANK 0"
            DATA    0008H     0009H     UNIT         ?DT?CONSOLE
            DATA    0011H     0004H     UNIT         ?DT?SIO
            DATA    0015H     0004H     UNIT         ?DT?KEY
            DATA    0019H     0004H     UNIT         ?DT?_DELAY_US?LIB
            DATA    001DH     0002H     UNIT         ?DT?TIMER
                    001FH     0001H                  *** GAP ***
            BIT     0020H.0   0001H.1   UNIT         _BIT_GROUP_
            BIT     0021H.1   0000H.1   UNIT         ?BI?SIO
                    0021H.2   0000H.6                *** GAP ***
            DATA    0022H     002CH     UNIT         ?DT?MAIN
            DATA    004EH     0022H     UNIT         _DATA_GROUP_
            IDATA   0070H     0020H     UNIT         ?ID?SIO
            IDATA   0090H     0001H     UNIT         ?STACK

            * * * * * * *  X D A T A   M E M O R Y  * * * * * * *
            XDATA   0000H     0034H     UNIT         ?XD?CONSOLE

            * * * * * * *   C O D E   M E M O R Y   * * * * * * *
            CODE    0000H     0006H     ABSOLUTE     
            CODE    0006H     001DH     UNIT         ?PR?_FLASHCHARGE?MAIN
            CODE    0023H     0003H     ABSOLUTE     
            CODE    0026H     0004H     UNIT         ?CO?CONSOLE
                    002AH     0001H                  *** GAP ***
            CODE    002BH     0003H     ABSOLUTE     
            CODE    002EH     002BH     UNIT         ?PR?_PUTCHAR?SIO
                    0059H     0002H                  *** GAP ***
            CODE    005BH     0003H     ABSOLUTE     
            CODE    005EH     09A6H     UNIT         ?C?LIB_CODE
            CODE    0A04H     046FH     UNIT         ?PR?PRINTF?PRINTF
            CODE    0E73H     0171H     UNIT         ?PR?_COM_BAUDRATE?SIO
            CODE    0FE4H     00AEH     UNIT         ?PR?_CONSOLEINPUT?CONSOLE
            CODE    1092H     00AEH     UNIT         ?PR?_ATOI?ATOI
            CODE    1140H     00A0H     UNIT         ?PR?_RUNCOMMAND?CONSOLE
            CODE    11E0H     008CH     UNIT         ?C_C51STARTUP
            CODE    126CH     0072H     UNIT         ?C_INITSEG
            CODE    12DEH     0066H     UNIT         ?PR?GET_BATTERY_VOL?MAIN
            CODE    1344H     0065H     UNIT         ?PR?CONSOLERUN?CONSOLE
            CODE    13A9H     0055H     UNIT         ?PR?COM_ISR?SIO
            CODE    13FEH     0051H     UNIT         ?PR?MAIN?MAIN
            CODE    144FH     004DH     UNIT         ?PR?_COM_WRITE?SIO
            CODE    149CH     004BH     UNIT         ?PR?GET_CHARGE_VOL?MAIN
            CODE    14E7H     0043H     UNIT         ?PR?POWERKEY_SCAN?KEY
            CODE    152AH     0040H     UNIT         ?PR?INIT_DEVICE?MAIN
            CODE    156AH     0039H     UNIT         ?PR?FLASHCHARGEPROCESS?MAIN
            CODE    15A3H     0033H     UNIT         ?PR?_COM_PUTCHAR?SIO
            CODE    15D6H     0032H     UNIT         ?PR?CONSOLEINIT?CONSOLE
            CODE    1608H     0030H     UNIT         ?PR?PCA0_INIT?MAIN
BL51 BANKED LINKER/LOCATER V6.22.2.0                                                  05/30/2021  15:54:49  PAGE 3


            CODE    1638H     002FH     UNIT         ?PR?_CONSOLEREGCMD?CONSOLE
            CODE    1667H     002EH     UNIT         ?PR?ADC_READ?ADC
            CODE    1695H     0029H     UNIT         ?PR?CHARGE_DEC_PROC?MAIN
            CODE    16BEH     0028H     UNIT         ?PR?PCA0_ISR?MAIN
            CODE    16E6H     0028H     UNIT         ?PR?COM_INITIALIZE?SIO
            CODE    170EH     0028H     UNIT         ?PR?_DELAY_US?LIB
            CODE    1736H     0026H     UNIT         ?PR?COM_GETCHAR?SIO
            CODE    175CH     0025H     UNIT         ?PR?_LED?MAIN
            CODE    1781H     0022H     UNIT         ?PR?POWEROFF?MAIN
            CODE    17A3H     001DH     UNIT         ?PR?KEY_PROCESS?MAIN
            CODE    17C0H     001AH     UNIT         ?PR?_TIMER2_INIT?TIMER
            CODE    17DAH     0019H     UNIT         ?PR?_FLASH?MAIN
            CODE    17F3H     0019H     UNIT         ?PR?TIMER2_ISTIMEOUT?TIMER
            CODE    180CH     0018H     UNIT         ?PR?ADC_INIT?ADC
            CODE    1824H     0018H     UNIT         ?PR?_DELAY_MS?LIB
            CODE    183CH     0017H     UNIT         ?PR?MAKE_HEART_PACKET?MAIN
            CODE    1853H     0017H     UNIT         ?PR?_STATUS?MAIN
            CODE    186AH     0013H     UNIT         ?PR?PORT_INIT?MAIN
            CODE    187DH     0013H     UNIT         ?PR?_ISSPACE?ISSPACE
            CODE    1890H     0012H     UNIT         ?PR?COM_RBUFLEN?SIO
            CODE    18A2H     0012H     UNIT         ?PR?COM_TBUFLEN?SIO
            CODE    18B4H     000FH     UNIT         ?PR?TIMER2_ISR?TIMER
            CODE    18C3H     000FH     UNIT         ?PR?_ISDIGIT?ISDIGIT
            CODE    18D2H     000EH     UNIT         ?PR?FLASHME?MAIN
            CODE    18E0H     000EH     UNIT         ?PR?DELAY_1MS?LIB
            CODE    18EEH     000DH     UNIT         ?PR?_ADC_SETPORT?ADC
            CODE    18FBH     000DH     UNIT         ?PR?_NONE?CONSOLE
            CODE    1908H     000CH     UNIT         ?CO?MAIN
            CODE    1914H     000CH     UNIT         ?PR?_GETKEY?SIO
            CODE    1920H     0007H     UNIT         ?PR?OSCILLATOR_INIT?MAIN
            CODE    1927H     0003H     UNIT         ?PR?INTERRUPTS_INIT?MAIN
            CODE    192AH     0003H     UNIT         ?PR?POWERKEY_INIT?KEY



OVERLAY MAP OF MODULE:   .\Objects\FlashMe (?C_STARTUP)


SEGMENT                                BIT_GROUP          DATA_GROUP 
  +--> CALLED SEGMENT               START    LENGTH     START    LENGTH
-----------------------------------------------------------------------
?C_C51STARTUP                       -----    -----      -----    -----
  +--> ?PR?MAIN?MAIN
  +--> ?C_INITSEG

?PR?MAIN?MAIN                       -----    -----      -----    -----
  +--> ?PR?INIT_DEVICE?MAIN
  +--> ?PR?TIMER2_ISTIMEOUT?TIMER
  +--> ?PR?KEY_PROCESS?MAIN
  +--> ?PR?FLASHCHARGEPROCESS?MAIN
  +--> ?PR?CONSOLERUN?CONSOLE
  +--> ?PR?CHARGE_DEC_PROC?MAIN
  +--> ?PR?MAKE_HEART_PACKET?MAIN
  +--> ?PR?_COM_WRITE?SIO

?PR?INIT_DEVICE?MAIN                -----    -----      -----    -----
  +--> ?PR?_TIMER2_INIT?TIMER
BL51 BANKED LINKER/LOCATER V6.22.2.0                                                  05/30/2021  15:54:49  PAGE 4


  +--> ?PR?COM_INITIALIZE?SIO
  +--> ?PR?ADC_INIT?ADC
  +--> ?PR?PORT_INIT?MAIN
  +--> ?PR?OSCILLATOR_INIT?MAIN
  +--> ?PR?PCA0_INIT?MAIN
  +--> ?PR?_FLASHCHARGE?MAIN
  +--> ?PR?POWERKEY_INIT?KEY
  +--> ?PR?INTERRUPTS_INIT?MAIN
  +--> ?PR?CONSOLEINIT?CONSOLE
  +--> ?PR?_CONSOLEREGCMD?CONSOLE

?PR?COM_INITIALIZE?SIO              -----    -----      -----    -----
  +--> ?PR?_COM_BAUDRATE?SIO

?PR?_COM_BAUDRATE?SIO               -----    -----      004EH    0004H

?PR?_CONSOLEREGCMD?CONSOLE          -----    -----      004EH    0003H

?PR?KEY_PROCESS?MAIN                -----    -----      -----    -----
  +--> ?PR?POWERKEY_SCAN?KEY
  +--> ?PR?POWEROFF?MAIN
  +--> ?PR?_DELAY_MS?LIB

?PR?POWEROFF?MAIN                   -----    -----      004EH    0002H
  +--> ?PR?_DELAY_MS?LIB

?PR?_DELAY_MS?LIB                   -----    -----      -----    -----
  +--> ?PR?DELAY_1MS?LIB

?PR?FLASHCHARGEPROCESS?MAIN         -----    -----      004EH    0001H
  +--> ?PR?_FLASHCHARGE?MAIN

?PR?CONSOLERUN?CONSOLE              -----    -----      004EH    0002H
  +--> ?PR?COM_GETCHAR?SIO
  +--> ?CO?CONSOLE
  +--> ?PR?PRINTF?PRINTF
  +--> ?PR?_CONSOLEINPUT?CONSOLE

?PR?COM_GETCHAR?SIO                 -----    -----      -----    -----
  +--> ?PR?COM_RBUFLEN?SIO

?PR?PRINTF?PRINTF                   0020H.0  0001H.1    0050H    001CH
  +--> ?PR?_PUTCHAR?SIO

?PR?_PUTCHAR?SIO                    -----    -----      006CH    0003H
  +--> ?PR?_COM_PUTCHAR?SIO

?PR?_COM_PUTCHAR?SIO                -----    -----      006FH    0001H
  +--> ?PR?COM_TBUFLEN?SIO

?PR?_CONSOLEINPUT?CONSOLE           -----    -----      0050H    0008H
  +--> ?PR?_RUNCOMMAND?CONSOLE

?PR?_RUNCOMMAND?CONSOLE             -----    -----      0058H    000CH

?PR?CHARGE_DEC_PROC?MAIN            -----    -----      -----    -----
  +--> ?PR?GET_CHARGE_VOL?MAIN
BL51 BANKED LINKER/LOCATER V6.22.2.0                                                  05/30/2021  15:54:49  PAGE 5



?PR?GET_CHARGE_VOL?MAIN             -----    -----      0053H    0006H
  +--> ?PR?_ADC_SETPORT?ADC
  +--> ?PR?ADC_READ?ADC

?PR?_ADC_SETPORT?ADC                -----    -----      -----    -----
  +--> ?PR?_DELAY_MS?LIB

?PR?MAKE_HEART_PACKET?MAIN          -----    -----      -----    -----
  +--> ?PR?GET_BATTERY_VOL?MAIN
  +--> ?PR?GET_CHARGE_VOL?MAIN

?PR?GET_BATTERY_VOL?MAIN            -----    -----      0053H    000AH
  +--> ?PR?_ADC_SETPORT?ADC
  +--> ?PR?ADC_READ?ADC

?PR?_COM_WRITE?SIO                  -----    -----      0053H    0007H
  +--> ?PR?_COM_PUTCHAR?SIO

?C_INITSEG                          -----    -----      -----    -----
  +--> ?CO?MAIN
  +--> ?PR?_FLASH?MAIN
  +--> ?PR?_STATUS?MAIN
  +--> ?PR?_LED?MAIN
  +--> ?CO?CONSOLE
  +--> ?PR?_NONE?CONSOLE

?PR?_FLASH?MAIN                     -----    -----      004EH    0005H
  +--> ?PR?FLASHME?MAIN

?PR?FLASHME?MAIN                    -----    -----      -----    -----
  +--> ?PR?DELAY_1MS?LIB

?PR?_STATUS?MAIN                    -----    -----      004EH    0005H
  +--> ?PR?MAKE_HEART_PACKET?MAIN
  +--> ?PR?_COM_WRITE?SIO

?PR?_LED?MAIN                       -----    -----      004EH    0002H
  +--> ?PR?_ATOI?ATOI

?PR?_ATOI?ATOI                      0020H.0  0000H.1    0050H    0005H
  +--> ?PR?_ISSPACE?ISSPACE
  +--> ?PR?_ISDIGIT?ISDIGIT

?PR?_NONE?CONSOLE                   -----    -----      004EH    0005H



SYMBOL TABLE OF MODULE:  .\Objects\FlashMe (?C_STARTUP)

  VALUE           TYPE          NAME
  ----------------------------------

  -------         MODULE        ?C_STARTUP
  C:11E0H         SEGMENT       ?C_C51STARTUP
  I:0090H         SEGMENT       ?STACK
  C:0000H         PUBLIC        ?C_STARTUP
BL51 BANKED LINKER/LOCATER V6.22.2.0                                                  05/30/2021  15:54:49  PAGE 6


  D:00E0H         SYMBOL        ACC
  D:00F0H         SYMBOL        B
  D:0083H         SYMBOL        DPH
  D:0082H         SYMBOL        DPL
  N:0000H         SYMBOL        IBPSTACK
  N:0100H         SYMBOL        IBPSTACKTOP
  N:0080H         SYMBOL        IDATALEN
  C:11E3H         SYMBOL        IDATALOOP
  N:0000H         SYMBOL        PBPSTACK
  N:0100H         SYMBOL        PBPSTACKTOP
  N:0000H         SYMBOL        PDATALEN
  N:0000H         SYMBOL        PDATASTART
  N:0000H         SYMBOL        PPAGE
  N:0000H         SYMBOL        PPAGEENABLE
  D:00A0H         SYMBOL        PPAGE_SFR
  D:0081H         SYMBOL        SP
  C:11E0H         SYMBOL        STARTUP1
  N:0000H         SYMBOL        XBPSTACK
  N:0000H         SYMBOL        XBPSTACKTOP
  N:0000H         SYMBOL        XDATALEN
  N:0000H         SYMBOL        XDATASTART
  C:0000H         LINE#         126
  C:0003H         LINE#         127
  C:11E0H         LINE#         134
  C:11E2H         LINE#         135
  C:11E3H         LINE#         136
  C:11E4H         LINE#         137
  C:11E6H         LINE#         186
  C:11E9H         LINE#         197
  -------         ENDMOD        ?C_STARTUP

  -------         MODULE        MAIN
  C:0000H         SYMBOL        _ICE_DUMMY_
  D:0080H         PUBLIC        P0
  D:0090H         PUBLIC        P1
  D:00E6H         PUBLIC        EIE1
  B:00A8H.7       PUBLIC        EA
  C:1853H         SYMBOL        _Status
  D:00A4H         PUBLIC        P0MDOUT
  D:00A5H         PUBLIC        P1MDOUT
  D:0022H         SYMBOL        _1s_tick
  D:00FCH         PUBLIC        PCA0CPH0
  C:1695H         PUBLIC        charge_dec_proc
  D:0024H         SYMBOL        _FlashCommand
  B:00D8H.6       PUBLIC        CR
  C:175CH         SYMBOL        _Led
  D:00FBH         PUBLIC        PCA0CPL0
  D:00DAH         PUBLIC        PCA0CPM0
  D:00D9H         PUBLIC        PCA0MD
  D:00D8H         PUBLIC        PCA0CN
  C:1920H         PUBLIC        Oscillator_Init
  D:00E1H         PUBLIC        XBR0
  C:186AH         PUBLIC        Port_Init
  D:00E2H         PUBLIC        XBR1
  C:18D2H         SYMBOL        FlashMe
  C:156AH         SYMBOL        FlashChargeProcess
  C:13FEH         PUBLIC        main
BL51 BANKED LINKER/LOCATER V6.22.2.0                                                  05/30/2021  15:54:49  PAGE 7


  D:00F2H         PUBLIC        P1MDIN
  D:002DH         SYMBOL        _StatusCommand
  C:1781H         SYMBOL        PowerOff
  D:0036H         PUBLIC        Next_Compare_Value
  D:0089H         PUBLIC        TMOD
  D:0038H         SYMBOL        _LedCommand
  D:00D5H         PUBLIC        P1SKIP
  C:1927H         PUBLIC        Interrupts_Init
  D:0041H         SYMBOL        _chargeRemindCount
  C:0006H         SYMBOL        _FlashCharge
  D:00B2H         PUBLIC        OSCICN
  D:0043H         SYMBOL        _20s_tick
  C:149CH         SYMBOL        get_charge_vol
  B:0080H.6       PUBLIC        POWER_LED
  D:00FBH         PUBLIC        PCA0CP0
  C:152AH         PUBLIC        Init_Device
  D:008CH         PUBLIC        TH0
  D:00FAH         PUBLIC        PCA0H
  D:008AH         PUBLIC        TL0
  D:00F9H         PUBLIC        PCA0L
  D:0045H         SYMBOL        vol
  D:0047H         SYMBOL        _chargeState
  D:0049H         SYMBOL        _heart_packet
  B:0080H.1       PUBLIC        POWER_CTL
  C:16BEH         PUBLIC        PCA0_ISR
  C:12DEH         SYMBOL        get_battery_vol
  B:0088H.4       PUBLIC        TR0
  B:0090H.3       PUBLIC        LED_SW
  D:00EFH         PUBLIC        RSTSRC
  C:17A3H         SYMBOL        Key_Process
  D:008EH         PUBLIC        CKCON
  C:17DAH         SYMBOL        _Flash
  B:0090H.5       PUBLIC        CHARGE_CTL
  C:183CH         SYMBOL        make_heart_packet
  B:0090H.4       PUBLIC        FLASH_SW
  C:1608H         PUBLIC        PCA0_Init
  B:00D8H.0       PUBLIC        CCF0
  -------         PROC          PORT_INIT
  C:186AH         LINE#         20
  C:186AH         LINE#         21
  C:186AH         LINE#         40
  C:186DH         LINE#         41
  C:1870H         LINE#         42
  C:1873H         LINE#         43
  C:1876H         LINE#         44
  C:1879H         LINE#         45
  C:187CH         LINE#         46
  -------         ENDPROC       PORT_INIT
  -------         PROC          _FLASHCHARGE
  D:0006H         SYMBOL        sw
  C:0006H         LINE#         61
  C:0006H         LINE#         62
  C:0006H         LINE#         63
  C:0010H         LINE#         64
  C:0016H         LINE#         65
  C:0018H         LINE#         66
  C:001CH         LINE#         67
BL51 BANKED LINKER/LOCATER V6.22.2.0                                                  05/30/2021  15:54:49  PAGE 8


  C:001CH         LINE#         70
  C:0020H         LINE#         71
  C:0022H         LINE#         72
  C:0022H         LINE#         73
  -------         ENDPROC       _FLASHCHARGE
  -------         PROC          GET_BATTERY_VOL
  -------         DO            
  D:0053H         SYMBOL        i
  D:0055H         SYMBOL        sum
  D:0057H         SYMBOL        vol
  -------         DO            
  D:005BH         SYMBOL        val
  -------         ENDDO         
  -------         ENDDO         
  C:12DEH         LINE#         75
  C:12DEH         LINE#         76
  C:12DEH         LINE#         78
  C:12E3H         LINE#         81
  C:12E9H         LINE#         83
  C:12EEH         LINE#         84
  C:12F5H         LINE#         85
  C:1301H         LINE#         86
  C:1314H         LINE#         88
  C:132EH         LINE#         90
  -------         ENDPROC       GET_BATTERY_VOL
  -------         PROC          GET_CHARGE_VOL
  -------         DO            
  D:0053H         SYMBOL        i
  D:0055H         SYMBOL        sum
  D:0004H         SYMBOL        vol
  -------         DO            
  D:0057H         SYMBOL        val
  -------         ENDDO         
  -------         ENDDO         
  C:149CH         LINE#         93
  C:149CH         LINE#         94
  C:149CH         LINE#         96
  C:14A1H         LINE#         99
  C:14A7H         LINE#         101
  C:14ACH         LINE#         102
  C:14B3H         LINE#         103
  C:14BFH         LINE#         104
  C:14D2H         LINE#         106
  C:14E4H         LINE#         108
  -------         ENDPROC       GET_CHARGE_VOL
  -------         PROC          FLASHCHARGEPROCESS
  -------         DO            
  D:004EH         SYMBOL        vol
  -------         ENDDO         
  C:156AH         LINE#         111
  C:156AH         LINE#         112
  C:156AH         LINE#         114
  C:156DH         LINE#         115
  C:1573H         LINE#         116
  C:1573H         LINE#         118
  C:158BH         LINE#         119
  C:15A2H         LINE#         120
BL51 BANKED LINKER/LOCATER V6.22.2.0                                                  05/30/2021  15:54:49  PAGE 9


  -------         ENDPROC       FLASHCHARGEPROCESS
  -------         PROC          PCA0_INIT
  C:1608H         LINE#         160
  C:1608H         LINE#         161
  C:1608H         LINE#         163
  C:160BH         LINE#         164
  C:160EH         LINE#         165
  C:1611H         LINE#         166
  C:1614H         LINE#         167
  C:1617H         LINE#         170
  C:161AH         LINE#         171
  C:161DH         LINE#         173
  C:1620H         LINE#         177
  C:1622H         LINE#         178
  C:1624H         LINE#         180
  C:1627H         LINE#         181
  C:1629H         LINE#         184
  C:1634H         LINE#         186
  C:1637H         LINE#         187
  -------         ENDPROC       PCA0_INIT
  -------         PROC          OSCILLATOR_INIT
  C:1920H         LINE#         191
  C:1920H         LINE#         192
  C:1920H         LINE#         193
  C:1923H         LINE#         195
  C:1926H         LINE#         196
  -------         ENDPROC       OSCILLATOR_INIT
  -------         PROC          INTERRUPTS_INIT
  C:1927H         LINE#         198
  C:1927H         LINE#         199
  C:1927H         LINE#         200
  C:1929H         LINE#         201
  -------         ENDPROC       INTERRUPTS_INIT
  -------         PROC          MAKE_HEART_PACKET
  -------         DO            
  D:0007H         SYMBOL        vol
  -------         ENDDO         
  C:183CH         LINE#         207
  C:183CH         LINE#         208
  C:183CH         LINE#         209
  C:183FH         LINE#         210
  C:1841H         LINE#         211
  C:1846H         LINE#         212
  C:184CH         LINE#         214
  C:1852H         LINE#         215
  -------         ENDPROC       MAKE_HEART_PACKET
  -------         PROC          FLASHME
  C:18D2H         LINE#         218
  C:18D2H         LINE#         219
  C:18D2H         LINE#         220
  C:18D4H         LINE#         221
  C:18D7H         LINE#         222
  C:18D9H         LINE#         223
  C:18DFH         LINE#         224
  -------         ENDPROC       FLASHME
  -------         PROC          _FLASH
  D:004EH         SYMBOL        argc
BL51 BANKED LINKER/LOCATER V6.22.2.0                                                  05/30/2021  15:54:49  PAGE 10


  D:0050H         SYMBOL        argv
  C:17DAH         LINE#         226
  C:17E4H         LINE#         227
  C:17E4H         LINE#         228
  C:17EAH         LINE#         229
  C:17EDH         LINE#         230
  C:17F0H         LINE#         231
  C:17F0H         LINE#         233
  C:17F2H         LINE#         234
  -------         ENDPROC       _FLASH
  -------         PROC          _STATUS
  D:004EH         SYMBOL        argc
  D:0050H         SYMBOL        argv
  C:1853H         LINE#         243
  C:185DH         LINE#         244
  C:185DH         LINE#         245
  C:1867H         LINE#         246
  C:1869H         LINE#         247
  -------         ENDPROC       _STATUS
  -------         PROC          _LED
  D:0006H         SYMBOL        argc
  D:0001H         SYMBOL        argv
  -------         DO            
  D:004EH         SYMBOL        sw
  -------         ENDDO         
  C:175CH         LINE#         255
  C:175CH         LINE#         256
  C:175CH         LINE#         257
  C:1762H         LINE#         258
  C:176FH         LINE#         260
  C:177BH         LINE#         262
  C:177EH         LINE#         263
  C:177EH         LINE#         265
  C:1780H         LINE#         266
  -------         ENDPROC       _LED
  -------         PROC          INIT_DEVICE
  C:152AH         LINE#         276
  C:152AH         LINE#         277
  C:152AH         LINE#         278
  C:1531H         LINE#         279
  C:1534H         LINE#         280
  C:1537H         LINE#         281
  C:153AH         LINE#         282
  C:153DH         LINE#         283
  C:1540H         LINE#         284
  C:1546H         LINE#         285
  C:1549H         LINE#         286
  C:154CH         LINE#         287
  C:154FH         LINE#         288
  C:1558H         LINE#         289
  C:1561H         LINE#         290
  -------         ENDPROC       INIT_DEVICE
  -------         PROC          POWEROFF
  -------         DO            
  D:004EH         SYMBOL        i
  -------         ENDDO         
  C:1781H         LINE#         297
BL51 BANKED LINKER/LOCATER V6.22.2.0                                                  05/30/2021  15:54:49  PAGE 11


  C:1781H         LINE#         298
  C:1781H         LINE#         300
  C:1786H         LINE#         301
  C:1788H         LINE#         302
  C:178FH         LINE#         303
  C:17A2H         LINE#         304
  -------         ENDPROC       POWEROFF
  -------         PROC          KEY_PROCESS
  -------         DO            
  D:0007H         SYMBOL        key_state
  -------         ENDDO         
  C:17A3H         LINE#         308
  C:17A3H         LINE#         309
  C:17A3H         LINE#         310
  C:17A6H         LINE#         312
  C:17ACH         LINE#         314
  C:17B1H         LINE#         315
  C:17B4H         LINE#         316
  C:17B6H         LINE#         317
  C:17B8H         LINE#         318
  C:17BFH         LINE#         319
  C:17BFH         LINE#         320
  -------         ENDPROC       KEY_PROCESS
  -------         PROC          PCA0_ISR
  C:16BEH         LINE#         334
  C:16C2H         LINE#         336
  C:16C5H         LINE#         337
  C:16C5H         LINE#         338
  C:16C7H         LINE#         340
  C:16CBH         LINE#         341
  C:16CFH         LINE#         343
  C:16D1H         LINE#         346
  C:16DCH         LINE#         347
  C:16DEH         LINE#         349
  C:16DEH         LINE#         350
  C:16E1H         LINE#         351
  C:16E1H         LINE#         352
  -------         ENDPROC       PCA0_ISR
  -------         PROC          CHARGE_DEC_PROC
  -------         DO            
  D:0007H         SYMBOL        vol
  -------         ENDDO         
  C:1695H         LINE#         354
  C:1695H         LINE#         355
  C:1695H         LINE#         357
  C:1698H         LINE#         358
  C:16A2H         LINE#         359
  C:16A7H         LINE#         360
  C:16A8H         LINE#         361
  C:16B5H         LINE#         362
  C:16BDH         LINE#         363
  C:16BDH         LINE#         364
  C:16BDH         LINE#         365
  -------         ENDPROC       CHARGE_DEC_PROC
  -------         PROC          MAIN
  C:13FEH         LINE#         368
  C:13FEH         LINE#         369
BL51 BANKED LINKER/LOCATER V6.22.2.0                                                  05/30/2021  15:54:49  PAGE 12


  C:13FEH         LINE#         371
  C:1401H         LINE#         372
  C:1403H         LINE#         373
  C:1405H         LINE#         374
  C:1407H         LINE#         376
  C:140AH         LINE#         378
  C:140AH         LINE#         379
  C:1411H         LINE#         380
  C:1414H         LINE#         381
  C:1417H         LINE#         382
  C:141AH         LINE#         384
  C:1422H         LINE#         385
  C:1428H         LINE#         386
  C:142CH         LINE#         387
  C:1434H         LINE#         388
  C:1437H         LINE#         390
  C:1437H         LINE#         393
  C:143FH         LINE#         394
  C:1443H         LINE#         395
  C:144DH         LINE#         396
  C:144DH         LINE#         397
  C:144DH         LINE#         398
  -------         ENDPROC       MAIN
  -------         ENDMOD        MAIN

  -------         MODULE        SIO
  C:0000H         SYMBOL        _ICE_DUMMY_
  C:1736H         PUBLIC        com_getchar
  C:1890H         PUBLIC        com_rbuflen
  C:18A2H         PUBLIC        com_tbuflen
  B:00A8H.4       PUBLIC        ES
  D:00B8H         PUBLIC        IP
  B:0098H.0       PUBLIC        RI
  C:15A3H         PUBLIC        _com_putchar
  B:0098H.1       PUBLIC        TI
  D:0011H         SYMBOL        r_in
  D:0012H         SYMBOL        r_out
  D:0013H         SYMBOL        t_in
  D:0014H         SYMBOL        t_out
  I:0070H         SYMBOL        rbuf
  D:0099H         PUBLIC        SBUF
  I:0080H         SYMBOL        tbuf
  D:0098H         PUBLIC        SCON
  D:0089H         PUBLIC        TMOD
  B:0021H.1       SYMBOL        ti_restart
  B:00A8H.3       PUBLIC        ET1
  D:008DH         PUBLIC        TH1
  C:144FH         PUBLIC        _com_write
  D:008BH         PUBLIC        TL1
  B:0088H.6       PUBLIC        TR1
  C:16E6H         PUBLIC        com_initialize
  C:1914H         PUBLIC        _getkey
  C:0E73H         PUBLIC        _com_baudrate
  D:008EH         PUBLIC        CKCON
  C:13A9H         SYMBOL        com_isr
  C:002EH         PUBLIC        _putchar
  -------         PROC          _GETKEY
BL51 BANKED LINKER/LOCATER V6.22.2.0                                                  05/30/2021  15:54:49  PAGE 13


  -------         DO            
  D:0006H         SYMBOL        k
  -------         ENDDO         
  C:1914H         LINE#         17
  C:1914H         LINE#         18
  C:1914H         LINE#         22
  C:1914H         LINE#         23
  C:1917H         LINE#         24
  C:1917H         LINE#         25
  C:191FH         LINE#         27
  C:191FH         LINE#         28
  -------         ENDPROC       _GETKEY
  -------         PROC          _PUTCHAR
  D:006CH         SYMBOL        c
  -------         DO            
  D:006DH         SYMBOL        i
  -------         ENDDO         
  C:002EH         LINE#         32
  C:0030H         LINE#         33
  C:0030H         LINE#         36
  C:003CH         LINE#         37
  C:003CH         LINE#         38
  C:004CH         LINE#         39
  C:004CH         LINE#         41
  C:0056H         LINE#         42
  C:0056H         LINE#         44
  C:0058H         LINE#         45
  -------         ENDPROC       _PUTCHAR
  -------         PROC          COM_ISR
  C:13A9H         LINE#         100
  C:13B6H         LINE#         105
  C:13B9H         LINE#         106
  C:13B9H         LINE#         107
  C:13BBH         LINE#         109
  C:13CBH         LINE#         110
  C:13CBH         LINE#         111
  C:13D4H         LINE#         112
  C:13D6H         LINE#         113
  C:13D6H         LINE#         114
  C:13D6H         LINE#         119
  C:13D9H         LINE#         120
  C:13D9H         LINE#         121
  C:13DBH         LINE#         123
  C:13E1H         LINE#         124
  C:13E1H         LINE#         125
  C:13EBH         LINE#         126
  C:13EDH         LINE#         127
  C:13EFH         LINE#         128
  C:13F1H         LINE#         130
  C:13F1H         LINE#         131
  C:13F3H         LINE#         132
  C:13F3H         LINE#         133
  C:13F3H         LINE#         134
  -------         ENDPROC       COM_ISR
  -------         PROC          COM_INITIALIZE
  C:16E6H         LINE#         140
  C:16EDH         LINE#         141
BL51 BANKED LINKER/LOCATER V6.22.2.0                                                  05/30/2021  15:54:49  PAGE 14


  C:16EDH         LINE#         145
  C:16F8H         LINE#         150
  C:16FBH         LINE#         151
  C:16FDH         LINE#         153
  C:16FFH         LINE#         154
  C:1701H         LINE#         156
  C:1703H         LINE#         157
  C:1705H         LINE#         158
  C:1707H         LINE#         160
  C:1709H         LINE#         161
  -------         ENDPROC       COM_INITIALIZE
  -------         PROC          _COM_BAUDRATE
  D:004EH         SYMBOL        baudrate
  C:0E73H         LINE#         169
  C:0E82H         LINE#         171
  C:0E82H         LINE#         175
  C:0E84H         LINE#         176
  C:0E87H         LINE#         177
  C:0E89H         LINE#         182
  C:0E8BH         LINE#         183
  C:0E8DH         LINE#         185
  C:0E90H         LINE#         187
  C:0EC1H         LINE#         188
  C:0EE2H         LINE#         189
  C:0EE5H         LINE#         190
  C:0EE8H         LINE#         191
  C:0F1CH         LINE#         192
  C:0F46H         LINE#         193
  C:0F49H         LINE#         194
  C:0F4CH         LINE#         195
  C:0F90H         LINE#         196
  C:0FAAH         LINE#         197
  C:0FADH         LINE#         198
  C:0FAFH         LINE#         199
  C:0FC9H         LINE#         200
  C:0FCCH         LINE#         201
  C:0FCFH         LINE#         202
  C:0FCFH         LINE#         204
  C:0FD2H         LINE#         205
  C:0FD5H         LINE#         206
  C:0FD8H         LINE#         207
  C:0FDAH         LINE#         208
  C:0FDDH         LINE#         209
  C:0FDFH         LINE#         210
  -------         ENDPROC       _COM_BAUDRATE
  -------         PROC          _COM_PUTCHAR
  D:006FH         SYMBOL        c
  C:15A3H         LINE#         216
  C:15ACH         LINE#         218
  C:15ACH         LINE#         222
  C:15B9H         LINE#         223
  C:15BDH         LINE#         229
  C:15C6H         LINE#         230
  C:15C8H         LINE#         232
  C:15CBH         LINE#         233
  C:15CBH         LINE#         234
  C:15CDH         LINE#         235
BL51 BANKED LINKER/LOCATER V6.22.2.0                                                  05/30/2021  15:54:49  PAGE 15


  C:15CFH         LINE#         236
  C:15CFH         LINE#         238
  C:15D1H         LINE#         239
  -------         ENDPROC       _COM_PUTCHAR
  -------         PROC          COM_GETCHAR
  C:1736H         LINE#         245
  C:173DH         LINE#         246
  C:173DH         LINE#         247
  C:1743H         LINE#         248
  C:1749H         LINE#         250
  C:1757H         LINE#         251
  -------         ENDPROC       COM_GETCHAR
  -------         PROC          COM_RBUFLEN
  C:1890H         LINE#         257
  C:1897H         LINE#         258
  C:1897H         LINE#         259
  C:189DH         LINE#         260
  -------         ENDPROC       COM_RBUFLEN
  -------         PROC          COM_TBUFLEN
  C:18A2H         LINE#         266
  C:18A9H         LINE#         267
  C:18A9H         LINE#         268
  C:18AFH         LINE#         269
  -------         ENDPROC       COM_TBUFLEN
  -------         PROC          _COM_WRITE
  D:0053H         SYMBOL        buf
  D:0056H         SYMBOL        size
  -------         DO            
  D:0058H         SYMBOL        i
  -------         ENDDO         
  C:144FH         LINE#         272
  C:1460H         LINE#         273
  C:1460H         LINE#         276
  C:1476H         LINE#         277
  C:1489H         LINE#         278
  C:1493H         LINE#         280
  C:1497H         LINE#         281
  -------         ENDPROC       _COM_WRITE
  -------         ENDMOD        SIO

  -------         MODULE        TIMER
  C:0000H         SYMBOL        _ICE_DUMMY_
  C:18B4H         PUBLIC        Timer2_ISR
  B:00C8H.7       PUBLIC        TF2H
  D:00CCH         PUBLIC        TMR2
  C:17C0H         PUBLIC        _Timer2_Init
  D:00C8H         PUBLIC        TMR2CN
  C:17F3H         PUBLIC        Timer2_IsTimeout
  D:00CAH         PUBLIC        TMR2RL
  B:00A8H.5       PUBLIC        ET2
  B:00C8H.2       PUBLIC        TR2
  D:001DH         SYMBOL        _overflow_count
  D:008EH         PUBLIC        CKCON
  -------         PROC          TIMER2_ISR
  C:18B4H         LINE#         20
  C:18B6H         LINE#         22
  C:18B8H         LINE#         23
BL51 BANKED LINKER/LOCATER V6.22.2.0                                                  05/30/2021  15:54:49  PAGE 16


  C:18C0H         LINE#         24
  -------         ENDPROC       TIMER2_ISR
  -------         PROC          TIMER2_ISTIMEOUT
  C:17F3H         LINE#         26
  C:17F3H         LINE#         27
  C:17F3H         LINE#         28
  C:1801H         LINE#         29
  C:1805H         LINE#         30
  C:1809H         LINE#         31
  C:1809H         LINE#         33
  C:180BH         LINE#         34
  -------         ENDPROC       TIMER2_ISTIMEOUT
  -------         PROC          _TIMER2_INIT
  D:0006H         SYMBOL        counts
  C:17C0H         LINE#         36
  C:17C0H         LINE#         37
  C:17C0H         LINE#         38
  C:17C3H         LINE#         39
  C:17C6H         LINE#         41
  C:17CFH         LINE#         42
  C:17D5H         LINE#         43
  C:17D7H         LINE#         44
  C:17D9H         LINE#         45
  -------         ENDPROC       _TIMER2_INIT
  -------         ENDMOD        TIMER

  -------         MODULE        ADC
  C:0000H         SYMBOL        _ICE_DUMMY_
  C:180CH         PUBLIC        Adc_Init
  D:00BCH         PUBLIC        ADC0CF
  D:00E8H         PUBLIC        ADC0CN
  D:00D1H         PUBLIC        REF0CN
  C:18EEH         PUBLIC        _Adc_SetPort
  D:00BEH         PUBLIC        ADC0H
  D:00BDH         PUBLIC        ADC0L
  B:00E8H.7       PUBLIC        AD0EN
  D:00BAH         PUBLIC        AMX0N
  C:1667H         PUBLIC        Adc_Read
  D:00BBH         PUBLIC        AMX0P
  B:00E8H.4       PUBLIC        AD0BUSY
  -------         PROC          ADC_INIT
  C:180CH         LINE#         8
  C:180CH         LINE#         9
  C:180CH         LINE#         10
  C:180FH         LINE#         13
  C:1812H         LINE#         15
  C:1815H         LINE#         16
  C:1818H         LINE#         19
  C:181BH         LINE#         20
  C:181EH         LINE#         21
  C:1821H         LINE#         22
  C:1823H         LINE#         23
  -------         ENDPROC       ADC_INIT
  -------         PROC          _ADC_SETPORT
  D:0006H         SYMBOL        port
  C:18EEH         LINE#         25
  C:18EEH         LINE#         26
BL51 BANKED LINKER/LOCATER V6.22.2.0                                                  05/30/2021  15:54:49  PAGE 17


  C:18EEH         LINE#         27
  C:18F0H         LINE#         28
  C:18F2H         LINE#         29
  C:18F4H         LINE#         30
  -------         ENDPROC       _ADC_SETPORT
  -------         PROC          ADC_READ
  -------         DO            
  D:0006H         SYMBOL        adval
  D:0006H         SYMBOL        volts
  -------         ENDDO         
  C:1667H         LINE#         34
  C:1667H         LINE#         35
  C:1667H         LINE#         37
  C:166AH         LINE#         39
  C:166CH         LINE#         40
  C:166FH         LINE#         43
  C:167DH         LINE#         45
  -------         ENDPROC       ADC_READ
  -------         ENDMOD        ADC

  -------         MODULE        KEY
  C:0000H         SYMBOL        _ICE_DUMMY_
  D:0080H         PUBLIC        P0
  D:0015H         SYMBOL        _power_key
  C:14E7H         PUBLIC        Powerkey_Scan
  B:0080H.2       PUBLIC        POWER_KEY
  C:192AH         PUBLIC        Powerkey_init
  -------         PROC          POWERKEY_INIT
  C:192AH         LINE#         13
  C:192AH         LINE#         14
  C:192AH         LINE#         15
  C:192CH         LINE#         16
  -------         ENDPROC       POWERKEY_INIT
  -------         PROC          POWERKEY_SCAN
  C:14E7H         LINE#         18
  C:14E7H         LINE#         19
  C:14E7H         LINE#         20
  C:14EAH         LINE#         21
  C:14F2H         LINE#         22
  C:14FDH         LINE#         23
  C:1500H         LINE#         24
  C:150FH         LINE#         25
  C:1512H         LINE#         26
  C:1512H         LINE#         27
  C:1514H         LINE#         28
  C:151FH         LINE#         29
  C:1522H         LINE#         30
  C:1527H         LINE#         31
  C:1527H         LINE#         32
  C:1527H         LINE#         34
  C:1529H         LINE#         35
  -------         ENDPROC       POWERKEY_SCAN
  -------         ENDMOD        KEY

  -------         MODULE        CONSOLE
  C:0000H         SYMBOL        _ICE_DUMMY_
  C:1638H         PUBLIC        _ConsoleRegCmd
BL51 BANKED LINKER/LOCATER V6.22.2.0                                                  05/30/2021  15:54:49  PAGE 18


  C:1344H         PUBLIC        ConsoleRun
  X:0000H         SYMBOL        _parameters
  C:18FBH         SYMBOL        _none
  X:000FH         SYMBOL        _command
  X:0031H         SYMBOL        _header
  D:0008H         SYMBOL        _noneCommand
  C:0FE4H         PUBLIC        _ConsoleInput
  C:15D6H         PUBLIC        ConsoleInit
  C:1140H         SYMBOL        _RunCommand
  -------         PROC          _NONE
  D:004EH         SYMBOL        argc
  D:0050H         SYMBOL        argv
  C:18FBH         LINE#         46
  C:1905H         LINE#         47
  C:1905H         LINE#         48
  C:1907H         LINE#         49
  -------         ENDPROC       _NONE
  -------         PROC          CONSOLEINIT
  C:15D6H         LINE#         67
  C:15D6H         LINE#         68
  C:15D6H         LINE#         69
  C:15DDH         LINE#         70
  C:15EAH         LINE#         72
  C:15F5H         LINE#         73
  C:1607H         LINE#         74
  -------         ENDPROC       CONSOLEINIT
  -------         PROC          CONSOLERUN
  -------         DO            
  D:004EH         SYMBOL        result
  D:004FH         SYMBOL        c
  -------         ENDDO         
  C:1344H         LINE#         76
  C:1344H         LINE#         77
  C:1344H         LINE#         80
  C:1349H         LINE#         81
  C:1356H         LINE#         82
  C:135CH         LINE#         83
  C:1365H         LINE#         84
  C:1370H         LINE#         85
  C:137FH         LINE#         86
  C:1386H         LINE#         87
  C:1387H         LINE#         88
  C:1387H         LINE#         89
  C:139AH         LINE#         90
  C:13A8H         LINE#         91
  C:13A8H         LINE#         92
  C:13A8H         LINE#         93
  -------         ENDPROC       CONSOLERUN
  -------         PROC          _CONSOLEREGCMD
  D:004EH         SYMBOL        cmd
  C:1638H         LINE#         95
  C:163EH         LINE#         96
  C:163EH         LINE#         97
  C:1666H         LINE#         98
  -------         ENDPROC       _CONSOLEREGCMD
  -------         PROC          _RUNCOMMAND
  D:0058H         SYMBOL        argc
BL51 BANKED LINKER/LOCATER V6.22.2.0                                                  05/30/2021  15:54:49  PAGE 19


  D:005AH         SYMBOL        argv
  -------         DO            
  D:005DH         SYMBOL        ret
  D:005EH         SYMBOL        item
  -------         DO            
  D:0061H         SYMBOL        cmd
  -------         ENDDO         
  -------         ENDDO         
  C:1140H         LINE#         100
  C:114AH         LINE#         101
  C:114AH         LINE#         102
  C:114DH         LINE#         105
  C:1165H         LINE#         106
  C:116EH         LINE#         107
  C:119FH         LINE#         108
  C:11CAH         LINE#         109
  C:11CCH         LINE#         110
  C:11CCH         LINE#         111
  C:11DDH         LINE#         113
  C:11DFH         LINE#         114
  -------         ENDPROC       _RUNCOMMAND
  -------         PROC          _CONSOLEINPUT
  D:0001H         SYMBOL        command
  -------         DO            
  D:0007H         SYMBOL        ret
  D:0006H         SYMBOL        count
  D:0050H         SYMBOL        current
  D:0053H         SYMBOL        remind
  D:0055H         SYMBOL        p
  -------         ENDDO         
  C:0FE4H         LINE#         116
  C:0FE4H         LINE#         117
  C:0FE4H         LINE#         119
  C:0FE7H         LINE#         120
  C:0FEDH         LINE#         121
  C:0FF1H         LINE#         124
  C:1002H         LINE#         125
  C:1005H         LINE#         126
  C:1023H         LINE#         127
  C:1027H         LINE#         128
  C:1036H         LINE#         129
  C:103BH         LINE#         130
  C:1040H         LINE#         131
  C:1042H         LINE#         132
  C:1042H         LINE#         133
  C:1048H         LINE#         134
  C:1048H         LINE#         135
  C:1055H         LINE#         137
  C:1066H         LINE#         138
  C:1084H         LINE#         139
  C:1089H         LINE#         140
  C:1089H         LINE#         142
  -------         ENDPROC       _CONSOLEINPUT
  -------         ENDMOD        CONSOLE

  -------         MODULE        LIB
  C:0000H         SYMBOL        _ICE_DUMMY_
BL51 BANKED LINKER/LOCATER V6.22.2.0                                                  05/30/2021  15:54:49  PAGE 20


  C:18E0H         PUBLIC        delay_1ms
  C:1824H         PUBLIC        _delay_ms
  C:170EH         PUBLIC        _delay_us
  -------         PROC          _DELAY_US
  D:0019H         SYMBOL        k
  C:170EH         LINE#         6
  C:1716H         LINE#         7
  C:1716H         LINE#         8
  C:1723H         LINE#         9
  C:1723H         LINE#         10
  C:1727H         LINE#         11
  C:172BH         LINE#         12
  C:172FH         LINE#         13
  C:1733H         LINE#         14
  C:1735H         LINE#         15
  -------         ENDPROC       _DELAY_US
  -------         PROC          DELAY_1MS
  -------         DO            
  D:0006H         SYMBOL        j
  -------         ENDDO         
  C:18E0H         LINE#         17
  C:18E0H         LINE#         18
  C:18E0H         LINE#         20
  C:18EDH         LINE#         21
  -------         ENDPROC       DELAY_1MS
  -------         PROC          _DELAY_MS
  D:0004H         SYMBOL        i
  C:1824H         LINE#         23
  C:1828H         LINE#         24
  C:1828H         LINE#         25
  C:183BH         LINE#         26
  -------         ENDPROC       _DELAY_MS
  -------         ENDMOD        LIB

  -------         MODULE        ?C?FPMUL
  C:005EH         PUBLIC        ?C?FPMUL
  -------         ENDMOD        ?C?FPMUL

  -------         MODULE        ?C?FPDIV
  C:0167H         PUBLIC        ?C?FPDIV
  -------         ENDMOD        ?C?FPDIV

  -------         MODULE        ?C?FCAST
  C:020EH         PUBLIC        ?C?FCASTC
  C:0209H         PUBLIC        ?C?FCASTI
  C:0204H         PUBLIC        ?C?FCASTL
  -------         ENDMOD        ?C?FCAST

  -------         MODULE        ?C?CASTF
  C:0242H         PUBLIC        ?C?CASTF
  -------         ENDMOD        ?C?CASTF

  -------         MODULE        PRINTF
  D:0050H         PUBLIC        ?_PRINTF?BYTE
  D:0050H         PUBLIC        ?_SPRINTF?BYTE
  C:0A66H         PUBLIC        _PRINTF
  C:0A60H         PUBLIC        _SPRINTF
BL51 BANKED LINKER/LOCATER V6.22.2.0                                                  05/30/2021  15:54:49  PAGE 21


  -------         ENDMOD        PRINTF

  -------         MODULE        ?C?FPROUND
  C:02C3H         PUBLIC        ?C?FPROUND
  -------         ENDMOD        ?C?FPROUND

  -------         MODULE        ?C?FPCONVERT
  C:02F2H         PUBLIC        ?C?FPCONVERT
  -------         ENDMOD        ?C?FPCONVERT

  -------         MODULE        ?C?FPADD
  C:03FCH         PUBLIC        ?C?FPADD
  C:03F8H         PUBLIC        ?C?FPSUB
  -------         ENDMOD        ?C?FPADD

  -------         MODULE        ?C?FTNPWR
  C:051DH         PUBLIC        ?C?FTNPWR
  -------         ENDMOD        ?C?FTNPWR

  -------         MODULE        ?C?CLDPTR
  C:055DH         PUBLIC        ?C?CLDPTR
  -------         ENDMOD        ?C?CLDPTR

  -------         MODULE        ?C?CLDOPTR
  C:0576H         PUBLIC        ?C?CLDOPTR
  -------         ENDMOD        ?C?CLDOPTR

  -------         MODULE        ?C?CSTPTR
  C:05A3H         PUBLIC        ?C?CSTPTR
  -------         ENDMOD        ?C?CSTPTR

  -------         MODULE        ?C?IMUL
  C:05B5H         PUBLIC        ?C?IMUL
  -------         ENDMOD        ?C?IMUL

  -------         MODULE        ?C?ULDIV
  C:0603H         PUBLIC        ?C?ULDIV
  -------         ENDMOD        ?C?ULDIV

  -------         MODULE        ?C?LNEG
  C:0695H         PUBLIC        ?C?LNEG
  -------         ENDMOD        ?C?LNEG

  -------         MODULE        ?C?ULCMP
  C:06A3H         PUBLIC        ?C?ULCMP
  -------         ENDMOD        ?C?ULCMP

  -------         MODULE        ?C?ULSHR
  C:06B4H         PUBLIC        ?C?ULSHR
  -------         ENDMOD        ?C?ULSHR

  -------         MODULE        ?C?LLDIIDATA
  C:06D0H         PUBLIC        ?C?LLDIIDATA
  C:06C7H         PUBLIC        ?C?LLDIIDATA1
  C:06C9H         PUBLIC        ?C?LLDIIDATA8
  -------         ENDMOD        ?C?LLDIIDATA

BL51 BANKED LINKER/LOCATER V6.22.2.0                                                  05/30/2021  15:54:49  PAGE 22


  -------         MODULE        ?C?OFFXADD
  C:06E7H         PUBLIC        ?C?OFFXADD
  -------         ENDMOD        ?C?OFFXADD

  -------         MODULE        ?C?PLDIIDATA
  C:06F3H         PUBLIC        ?C?PLDIIDATA
  -------         ENDMOD        ?C?PLDIIDATA

  -------         MODULE        ?C?PLDPTR
  C:0703H         PUBLIC        ?C?PLDPTR
  -------         ENDMOD        ?C?PLDPTR

  -------         MODULE        ?C?PSTPTR
  C:0723H         PUBLIC        ?C?PSTPTR
  -------         ENDMOD        ?C?PSTPTR

  -------         MODULE        ?C?PLDOPTR
  C:0772H         PUBLIC        ?C?PLDOPTR
  -------         ENDMOD        ?C?PLDOPTR

  -------         MODULE        ?C?CCASE
  C:07A2H         PUBLIC        ?C?CCASE
  -------         ENDMOD        ?C?CCASE

  -------         MODULE        ?C?ICALL
  C:07C8H         PUBLIC        ?C?ICALL
  C:07CCH         PUBLIC        ?C?ICALL2
  -------         ENDMOD        ?C?ICALL

  -------         MODULE        ?C?LIMUL
  C:07CEH         PUBLIC        ?C?LIMUL
  -------         ENDMOD        ?C?LIMUL

  -------         MODULE        ?C?STRCMP
  C:0979H         PUBLIC        ?C?STRCMP
  -------         ENDMOD        ?C?STRCMP

  -------         MODULE        ATOI
  C:1092H         PUBLIC        _atoi
  -------         ENDMOD        ATOI

  -------         MODULE        ?C?MEMSET
  C:0996H         PUBLIC        ?C?MEMSET
  -------         ENDMOD        ?C?MEMSET

  -------         MODULE        ?C?PLDIDATA
  C:09C2H         PUBLIC        ?C?PLDIDATA
  -------         ENDMOD        ?C?PLDIDATA

  -------         MODULE        ?C?PSTIDATA
  C:09CBH         PUBLIC        ?C?PSTIDATA
  -------         ENDMOD        ?C?PSTIDATA

  -------         MODULE        ?C?PLDXDATA
  C:09D4H         PUBLIC        ?C?PLDXDATA
  -------         ENDMOD        ?C?PLDXDATA

BL51 BANKED LINKER/LOCATER V6.22.2.0                                                  05/30/2021  15:54:49  PAGE 23


  -------         MODULE        ?C?PSTXDATA
  C:09DDH         PUBLIC        ?C?PSTXDATA
  -------         ENDMOD        ?C?PSTXDATA

  -------         MODULE        ?C?PLDPDATA
  C:09E6H         PUBLIC        ?C?PLDPDATA
  -------         ENDMOD        ?C?PLDPDATA

  -------         MODULE        ?C?PSTPDATA
  C:09EFH         PUBLIC        ?C?PSTPDATA
  -------         ENDMOD        ?C?PSTPDATA

  -------         MODULE        ?C?PLDCODE
  C:09F8H         PUBLIC        ?C?PLDCODE
  -------         ENDMOD        ?C?PLDCODE

  -------         MODULE        ISDIGIT
  C:18C3H         PUBLIC        _isdigit
  -------         ENDMOD        ISDIGIT

  -------         MODULE        ISSPACE
  C:187DH         PUBLIC        _isspace
  -------         ENDMOD        ISSPACE

*** WARNING L16: UNCALLED SEGMENT, IGNORED FOR OVERLAY PROCESS
    SEGMENT: ?PR?_GETKEY?SIO

*** WARNING L16: UNCALLED SEGMENT, IGNORED FOR OVERLAY PROCESS
    SEGMENT: ?PR?_DELAY_US?LIB

Program Size: data=143.2 xdata=52 code=6442
LINK/LOCATE RUN COMPLETE.  2 WARNING(S),  0 ERROR(S)
