C51 COMPILER V9.59.0.0   MAIN                                                              05/30/2021 15:54:49 PAGE 1   


C51 COMPILER V9.59.0.0, COMPILATION OF MODULE MAIN
OBJECT MODULE PLACED IN .\Objects\main.obj
COMPILER INVOKED BY: C:\Keil_v5\C51\BIN\C51.EXE main.c OPTIMIZE(8,SPEED) BROWSE INCDIR(C:\Keil_v5\C51\INC\SiLABS\shared\
                    -si8051Base\;..\FlashMe) DEFINE(SYSCLK=24500000) DEBUG OBJECTEXTEND PRINT(.\Listings\main.lst) TABS(2) OBJECT(.\Objects\m
                    -ain.obj)

line level    source

   1          #include "si_toolchain.h"
   2          #include "C8051F330_defs.h"
   3          #include "adc.h"
   4          #include "timer.h"
   5          #include "sio.h"
   6          #include "key.h"
   7          #include "console.h"
   8          #include <stdlib.h>
   9          #include "lib.h"
  10          
  11          sbit POWER_LED = P0^6;
  12          sbit FLASH_SW = P1^4;
  13          sbit LED_SW = P1^3;
  14          sbit POWER_CTL = P0^1;
  15          sbit CHARGE_CTL = P1^5;
  16          sbit CHARGE_STATUS = P1^6;
  17          
  18          
  19          
  20          void Port_Init()
  21          {
  22   1          // P0.0  -  Unassigned,  Open-Drain, Digital
  23   1          // P0.1  -  Unassigned,  Push-Pull,  Digital
  24   1          // P0.2  -  Unassigned,  Open-Drain, Digital
  25   1          // P0.3  -  Unassigned,  Open-Drain, Digital
  26   1          // P0.4  -  TX0 (UART0), Open-Drain, Digital
  27   1          // P0.5  -  RX0 (UART0), Open-Drain, Digital
  28   1          // P0.6  -  Unassigned,  Push-Pull,  Digital
  29   1          // P0.7  -  Unassigned,  Open-Drain, Digital
  30   1      
  31   1          // P1.0  -  Unassigned,  Open-Drain, Analog
  32   1          // P1.1  -  Unassigned,  Open-Drain, Digital
  33   1          // P1.2  -  Unassigned,  Open-Drain, Digital
  34   1          // P1.3  -  Unassigned,  Push-Pull,  Digital
  35   1          // P1.4  -  Unassigned,  Push-Pull,  Digital
  36   1          // P1.5  -  Unassigned,  Open-Drain, Digital
  37   1          // P1.6  -  Unassigned,  Open-Drain, Analog
  38   1          // P1.7  -  Unassigned,  Open-Drain, Digital
  39   1      
  40   1          P1MDIN    = 0x3E;
  41   1          P1SKIP    = 0x01;
  42   1          P0MDOUT   = 0x46;
  43   1          P1MDOUT   = 0x3A;
  44   1          XBR0      = 0x01;
  45   1          XBR1      = 0x40;
  46   1      }
  47          
  48          unsigned int Next_Compare_Value;       // Next edge to be sent out in HSO mode
  49          
  50          #define CHARGE_FREQUENCY 100000         // Frequency to blink LED at in Hz
  51          #define T0_CLOCKS 123                  // Use 245 clocks per T0 Overflow
  52          
  53          // SYSCLK cycles per interrupt
C51 COMPILER V9.59.0.0   MAIN                                                              05/30/2021 15:54:49 PAGE 2   

  54          #define PCA_TIMEOUT ((SYSCLK/T0_CLOCKS)/CHARGE_FREQUENCY)
  55          
  56          #define CHARGE_MAX_COUNT 10
  57          static int _chargeRemindCount = CHARGE_MAX_COUNT;
  58          
  59          static int _chargeState = 0;
  60          
  61          static void FlashCharge(int sw)
  62          {
  63   1        if( _chargeState != sw){
  64   2          CR = sw;                             // Start PCA
  65   2          TR0 = sw;                            // Start Timer 0
  66   2          _chargeState = sw;
  67   2        }
  68   1        
  69   1        // charge over hold 1 
  70   1        if( sw == 0 ){
  71   2          CHARGE_CTL = 1;
  72   2        }
  73   1      }
  74          
  75          static unsigned char get_battery_vol()
  76          {
  77   1        int i;
  78   1        int sum = 0;
  79   1        double vol;
  80   1        
  81   1        Adc_SetPort(0x08);
  82   1        
  83   1        for(i = 0; i < 10; i++){
  84   2          int val = Adc_Read();
  85   2            sum += val;
  86   2        }
  87   1        
  88   1        vol = (double)sum / 10;
  89   1        
  90   1        return (unsigned char)(vol * 2.2043);
  91   1      }
  92          
  93          static unsigned char get_charge_vol()
  94          {
  95   1        int i;
  96   1        int sum = 0;
  97   1        double vol;
  98   1        
  99   1        Adc_SetPort(0x0E);
 100   1        
 101   1        for(i = 0; i < 10; i++){
 102   2          int val = Adc_Read();
 103   2            sum += val;
 104   2        }
 105   1        
 106   1        vol = (double)sum / 10;
 107   1        
 108   1        return (unsigned char)(vol);
 109   1      }
 110          
 111          static void FlashChargeProcess(void)
 112          {
 113   1        unsigned char vol;
 114   1        if( FLASH_SW == 0){
 115   2          _chargeRemindCount = CHARGE_MAX_COUNT;
C51 COMPILER V9.59.0.0   MAIN                                                              05/30/2021 15:54:49 PAGE 3   

 116   2        }
 117   1        
 118   1        FlashCharge(_chargeRemindCount > 0);
 119   1        _chargeRemindCount = _chargeRemindCount < 0 ? 0 : _chargeRemindCount;
 120   1      }
*** WARNING C280 IN LINE 113 OF main.c: 'vol': unreferenced local variable
 121          
 122          //-----------------------------------------------------------------------------
 123          // PCA0_Init
 124          //-----------------------------------------------------------------------------
 125          //
 126          // Return Value : None
 127          // Parameters   : None
 128          //
 129          // This function configures the PCA time base, and sets up frequency output
 130          // mode for Module 0 (CEX0 pin).
 131          //
 132          // The frequency generated at the CEX0 pin is equal to CEX0_FREQUENCY Hz,
 133          // which is defined in the "Global Constants" section at the beginning of the
 134          // file.
 135          //
 136          // The PCA time base in this example is configured to use SYSCLK / 12.
 137          // The frequency range that can be generated using this example is ~4 kHz to
 138          // ~1 MHz when the processor clock is 24.5 MHz.  Using different PCA clock
 139          // sources or a different processor clock will generate different frequency
 140          // ranges.
 141          //
 142          //    -------------------------------------------------------------------------
 143          //    How "Frequency Output Mode" Works:
 144          //
 145          //       The PCA's Frequency Output Mode works by toggling an output pin every
 146          //    "N" PCA clock cycles.  The value of "N" should be loaded into the PCA0CPH
 147          //    register for the module being used (in this case, module 0).  Whenever
 148          //    the register PCA0L (PCA counter low byte) and the module's PCA0CPL value
 149          //    are equivalent, two things happen:
 150          //
 151          //    1) The port pin associated with the PCA module toggles logic state
 152          //    2) The value stored in PCA0CPH is added to PCA0CPL.
 153          //
 154          //    Using this mode, a square wave is produced at the output port pin of the
 155          //    PCA module. The speed of the waveform can be changed by changing the
 156          //    value of the PCA0CPH register.
 157          //    -------------------------------------------------------------------------
 158          //
 159          //-----------------------------------------------------------------------------
 160          void PCA0_Init (void)
 161          {
 162   1         // Configure Timer 0 for 8-bit auto-reload mode, using SYSCLK as time base
 163   1         TMOD &= 0xF0;                       // Clear all T0 control bits
 164   1         TMOD |= 0x02;                       // 8-bit auto-reload timer
 165   1         CKCON |= 0x04;                      // T0 uses SYSCLK
 166   1         TH0 = -T0_CLOCKS;                   // Set up reload value
 167   1         TL0 = -T0_CLOCKS;                   // Set up initial value
 168   1      
 169   1         // Configure PCA time base; overflow interrupt disabled
 170   1         PCA0CN = 0x00;                      // Stop counter; clear all flags
 171   1         PCA0MD = 0x04;                      // Use Timer 0 as time base
 172   1      
 173   1         PCA0CPM0 = 0x49;                    // Module 0 = Software Timer Mode,
 174   1                                             // Enable Module 0 Interrupt flag,
 175   1                                             // Enable ECOM bit
 176   1      
C51 COMPILER V9.59.0.0   MAIN                                                              05/30/2021 15:54:49 PAGE 4   

 177   1         PCA0L = 0x00;                       // Reset PCA Counter Value to 0x0000
 178   1         PCA0H = 0x00;
 179   1      
 180   1         PCA0CPL0 = PCA_TIMEOUT & 0x00FF;    // Set up first match
 181   1         PCA0CPH0 = (PCA_TIMEOUT & 0xFF00) >> 8;
 182   1      
 183   1         // Set up the variable for the following match
 184   1         Next_Compare_Value = PCA0CP0 + PCA_TIMEOUT;
 185   1      
 186   1         EIE1 |= 0x10;                       // Enable PCA interrupts
 187   1      }
 188          
 189          
 190          
 191          void Oscillator_Init()
 192          {
 193   1         OSCICN |= 0x03;                     // Configure internal oscillator for its maximum frequency
 194   1      
 195   1         RSTSRC = 0x04;                         // enable missing clock detector
 196   1      }
 197          
 198          void Interrupts_Init()
 199          {
 200   1         EA = 1;
 201   1      }
 202          
 203          static unsigned char _heart_packet[] = { 0xFB, 0x00, 0x00, 0x00, 0xFF };
 204          
 205          
 206          
 207          static unsigned char *make_heart_packet(void)
 208          {
 209   1         unsigned char vol = get_battery_vol();
 210   1         _heart_packet[1] = vol;
 211   1         _heart_packet[2] = get_charge_vol();
 212   1         _heart_packet[3] = LED_SW;
 213   1        
 214   1        return _heart_packet;
 215   1      }
 216          
 217          
 218          static void FlashMe(void)
 219          {
 220   1        FLASH_SW = 0;
 221   1        delay_1ms();
*** WARNING C206 IN LINE 221 OF main.c: 'delay_1ms': missing function-prototype
 222   1        FLASH_SW = 1;
 223   1        _chargeRemindCount = CHARGE_MAX_COUNT;
 224   1      }
 225          
 226          static enConsoleResult Flash(int argc, char** argv)
 227          {
 228   1        if( _chargeRemindCount == 0){
 229   2          FlashMe();
 230   2          return CE_OK;
 231   2        }
 232   1        
 233   1        return CE_ACCESS_FORBIDDEN;
 234   1      }
*** WARNING C280 IN LINE 226 OF main.c: 'argc': unreferenced local variable
*** WARNING C280 IN LINE 226 OF main.c: 'argv': unreferenced local variable
 235          
C51 COMPILER V9.59.0.0   MAIN                                                              05/30/2021 15:54:49 PAGE 5   

 236          static const COMMAND _FlashCommand = {  
 237            DEFAULT_NODE,
 238            "FLS",
 239            Flash,
 240          };
 241          
 242          
 243          static enConsoleResult Status(int argc, char** argv)
 244          {
 245   1        com_write(make_heart_packet(), sizeof(_heart_packet));
 246   1        return CE_OK;
 247   1      }
*** WARNING C280 IN LINE 243 OF main.c: 'argc': unreferenced local variable
*** WARNING C280 IN LINE 243 OF main.c: 'argv': unreferenced local variable
 248          
 249          static const COMMAND _StatusCommand = {  
 250            DEFAULT_NODE,
 251            "STA",
 252            Status,
 253          };
 254          
 255          static enConsoleResult Led(int argc, char** argv)
 256          {
 257   1        if( argc == 2){
 258   2          int sw = atoi(argv[1]);
 259   2          
 260   2          LED_SW = sw == 0 ? 1 : 0;
 261   2          
 262   2          return CE_OK;
 263   2        }
 264   1        
 265   1        return CE_ACCESS_FORBIDDEN;
 266   1      }
 267          
 268          static const COMMAND _LedCommand = {  
 269            DEFAULT_NODE,
 270            "LED",
 271            Led,
 272          };
 273          
 274          // Initialization function for device,
 275          // Call Init_Device() from your main program
 276          void Init_Device(void)
 277          {
 278   1        Timer2_Init(SYSCLK / 12 / 100);    // Init Timer2 to generate interrupts at a 100Hz rate
 279   1        com_initialize();
 280   1        Adc_Init();
 281   1        Port_Init();
 282   1        Oscillator_Init();
 283   1        PCA0_Init();
 284   1        FlashCharge(0);
 285   1        Powerkey_init();
 286   1        Interrupts_Init();
 287   1        ConsoleInit();
 288   1        ConsoleRegCmd(&_FlashCommand);
 289   1        ConsoleRegCmd(&_LedCommand);
 290   1        ConsoleRegCmd(&_StatusCommand);
 291   1      }
 292          
 293          
 294          static int _1s_tick = 0;
 295          static int _20s_tick = 0;
C51 COMPILER V9.59.0.0   MAIN                                                              05/30/2021 15:54:49 PAGE 6   

 296          
 297          static void PowerOff(void)
 298          {
 299   1        int i;
 300   1        for(i=0; i < 6; i++){
 301   2          POWER_LED = !POWER_LED;
 302   2          delay_ms(200);
 303   2        }
 304   1      }
 305          
 306          static unsigned int vol = 0;
 307          
 308          static void Key_Process(void)
 309          {
 310   1          enKeyState key_state = Powerkey_Scan();
 311   1          //按键处理
 312   1          if( key_state == KEY_DOWN) {
 313   2      
 314   2          }else if( key_state == KEY_LONG) {
 315   2              PowerOff();
 316   2              FLASH_SW = 1;
 317   2              POWER_CTL = 0;
 318   2              delay_ms(2000);
 319   2          }
 320   1      }
 321          
 322          //-----------------------------------------------------------------------------
 323          // PCA0_ISR
 324          //-----------------------------------------------------------------------------
 325          //
 326          // Return Value : None
 327          // Parameters   : None
 328          //
 329          // This is the ISR for the PCA.  It handles the case when a match occurs on
 330          // channel 0, and updates the PCA0CPn compare register with the value held in
 331          // the global variable "Next_Compare_Value".
 332          //
 333          //-----------------------------------------------------------------------------
 334          void PCA0_ISR (void) interrupt 11
 335          {
 336   1         if (CCF0)                           // If Module 0 caused the interrupt
 337   1         {
 338   2            CCF0 = 0;                        // Clear module 0 interrupt flag.
 339   2      
 340   2            PCA0CPL0 = (Next_Compare_Value & 0x00FF);
 341   2            PCA0CPH0 = (Next_Compare_Value & 0xFF00)>>8;
 342   2           
 343   2            CHARGE_CTL = ~CHARGE_CTL;                      // Invert the LED pin
 344   2      
 345   2            // Set up the variable for the following edge
 346   2            Next_Compare_Value = PCA0CP0 + PCA_TIMEOUT;
 347   2         }
 348   1         else                                // Interrupt was caused by other bits.
 349   1         {
 350   2            PCA0CN &= ~0x86;                 // Clear other interrupt flags for PCA
 351   2         }
 352   1      }
 353          
 354          void charge_dec_proc(void)
 355          {
 356   1        unsigned char vol;                
 357   1        vol = get_charge_vol();
C51 COMPILER V9.59.0.0   MAIN                                                              05/30/2021 15:54:49 PAGE 7   

 358   1        if( vol >= 16){ //充电状态超过1.8V停止PWM输出
 359   2          _chargeRemindCount = 0;
 360   2        }else{
 361   2          if( _chargeRemindCount > 0 ){
 362   3            _chargeRemindCount--;
 363   3          }
 364   2        }
 365   1      }
 366          
 367          
 368          int main()
 369          {
 370   1        // disable watchdog timer
 371   1          PCA0MD &= ~0x40;                       // WDTE = 0 (clear watchdog timer enable)
 372   1          POWER_LED = 1;
 373   1          POWER_CTL = 1;
 374   1          FLASH_SW = 1;
 375   1      
 376   1          Init_Device();
 377   1      
 378   1          while(1){
 379   2              if( Timer2_IsTimeout()){ //10ms timeout
 380   3                  Key_Process();
 381   3                  FlashChargeProcess();
 382   3                  ConsoleRun();
 383   3                  //1秒过程
 384   3                  _1s_tick++;
 385   3                  if( _1s_tick == 100 ){
 386   4                      _1s_tick = 0;
 387   4                      _20s_tick++;
 388   4                      charge_dec_proc();
 389   4      
 390   4                  }
 391   3      
 392   3                  //20 秒的心跳包
 393   3                  if( _20s_tick == 20 ){
 394   4                      _20s_tick = 0;
 395   4                      com_write(make_heart_packet(), sizeof(_heart_packet));
 396   4                  }
 397   3              }
 398   2          }
 399   1      
 400   1          return 0;
 401   1      }
 402          
 403          
*** WARNING C294 IN LINE 400 OF main.c: unreachable code


MODULE INFORMATION:   STATIC OVERLAYABLE
   CODE SIZE        =    751    ----
   CONSTANT SIZE    =     12    ----
   XDATA SIZE       =   ----    ----
   PDATA SIZE       =   ----    ----
   DATA SIZE        =     44      31
   IDATA SIZE       =   ----    ----
   BIT SIZE         =   ----    ----
END OF MODULE INFORMATION.


C51 COMPILATION COMPLETE.  7 WARNING(S),  0 ERROR(S)
