C51 COMPILER V9.59.0.0   SIO                                                               05/16/2021 20:20:32 PAGE 1   


C51 COMPILER V9.59.0.0, COMPILATION OF MODULE SIO
OBJECT MODULE PLACED IN .\Objects\sio.obj
COMPILER INVOKED BY: C:\Keil_v5\C51\BIN\C51.EXE sio.c OPTIMIZE(8,SPEED) BROWSE INCDIR(C:\Keil_v5\C51\INC\SiLABS\shared\s
                    -i8051Base\;..\FlashMe) DEFINE(SYSCLK=24500000) DEBUG OBJECTEXTEND PRINT(.\Listings\sio.lst) TABS(2) OBJECT(.\Objects\sio
                    -.obj)

line level    source

   1          /*------------------------------------------------------------------------------
   2          SIO.C:  Serial Communication Routines.
   3          
   4          Copyright 1995-2002 KEIL Software, Inc.
   5          ------------------------------------------------------------------------------*/
   6          
   7          #include <reg51.h>
   8          #include <string.h>
   9          #include "sio.h"
  10          #include <stdio.h>
  11          
  12          /*------------------------------------------------------------------------------
  13          _getkey waits until a character is received from the serial port.  This may not
  14          be the exact desired operation (for example if the buffer is empty, this
  15          function hangs waiting for a character to be received).
  16          ------------------------------------------------------------------------------*/
  17          char _getkey (void)
  18          {
  19   1        int k;
  20   1      
  21   1        do
  22   1          {
  23   2          k = com_getchar ();
  24   2          }
  25   1        while (k == -1);
  26   1      
  27   1        return ((unsigned char) k);
  28   1      }
  29          
  30          /*------------------------------------------------------------------------------
  31          ------------------------------------------------------------------------------*/
  32          char putchar (char c)
  33          {
  34   1        volatile unsigned int i;
  35   1      
  36   1        while (com_putchar (c) != 0)
  37   1          {
  38   2          for (i=0; i<1000; i++)
  39   2            {
  40   3            /*** DO NOTHING ***/
  41   3            }
  42   2          }
  43   1      
  44   1        return (c);
  45   1      }
  46          
  47          /*------------------------------------------------------------------------------
  48          Notes:
  49          
  50          The length of the receive and transmit buffers must be a power of 2.
  51          
  52          Each buffer has a next_in and a next_out index.
  53          
C51 COMPILER V9.59.0.0   SIO                                                               05/16/2021 20:20:32 PAGE 2   

  54          If next_in = next_out, the buffer is empty.
  55          
  56          (next_in - next_out) % buffer_size = the number of characters in the buffer.
  57          ------------------------------------------------------------------------------*/
  58          #define TBUF_SIZE   16           /*** Must be one of these powers of 2 (2,4,8,16,32,64,128) ***/
  59          #define RBUF_SIZE   16           /*** Must be one of these powers of 2 (2,4,8,16,32,64,128) ***/
  60          
  61          #define TBUF_SPACE  idata       /*** Memory space where the transmit buffer resides ***/
  62          #define RBUF_SPACE  idata       /*** Memory space where the receive buffer resides ***/
  63          
  64          #define CTRL_SPACE  data        /*** Memory space for the buffer indexes ***/
  65          
  66          /*------------------------------------------------------------------------------
  67          ------------------------------------------------------------------------------*/
  68          #if TBUF_SIZE < 2
              #error TBUF_SIZE is too small.  It must be larger than 1.
              #elif TBUF_SIZE > 128
              #error TBUF_SIZE is too large.  It must be smaller than 129.
              #elif ((TBUF_SIZE & (TBUF_SIZE-1)) != 0)
              #error TBUF_SIZE must be a power of 2.
              #endif
  75          
  76          #if RBUF_SIZE < 2
              #error RBUF_SIZE is too small.  It must be larger than 1.
              #elif RBUF_SIZE > 128
              #error RBUF_SIZE is too large.  It must be smaller than 129.
              #elif ((RBUF_SIZE & (RBUF_SIZE-1)) != 0)
              #error RBUF_SIZE must be a power of 2.
              #endif
  83          
  84          /*------------------------------------------------------------------------------
  85          ------------------------------------------------------------------------------*/
  86          static TBUF_SPACE unsigned char tbuf [TBUF_SIZE];
  87          static RBUF_SPACE unsigned char rbuf [RBUF_SIZE];
  88          
  89          static CTRL_SPACE unsigned char t_in = 0;
  90          static CTRL_SPACE unsigned char t_out = 0;
  91          
  92          static CTRL_SPACE unsigned char r_in = 0;
  93          static CTRL_SPACE unsigned char r_out = 0;
  94          
  95          static bit ti_restart = 0;  /* NZ if TI=1 is required */
  96          
  97          
  98          /*------------------------------------------------------------------------------
  99          ------------------------------------------------------------------------------*/
 100          static void com_isr (void) interrupt 4
 101          {
 102   1        /*------------------------------------------------
 103   1        Received data interrupt.
 104   1        ------------------------------------------------*/
 105   1        if (RI != 0)
 106   1          {
 107   2          RI = 0;
 108   2      
 109   2          if (((r_in - r_out) & ~(RBUF_SIZE-1)) == 0)
 110   2            {
 111   3            rbuf [r_in & (RBUF_SIZE-1)] = SBUF;
 112   3            r_in++;
 113   3            }
 114   2          }
 115   1      
C51 COMPILER V9.59.0.0   SIO                                                               05/16/2021 20:20:32 PAGE 3   

 116   1        /*------------------------------------------------
 117   1        Transmitted data interrupt.
 118   1        ------------------------------------------------*/
 119   1        if (TI != 0)
 120   1          {
 121   2          TI = 0;
 122   2      
 123   2          if (t_in != t_out)
 124   2            {
 125   3            SBUF = tbuf [t_out & (TBUF_SIZE-1)];
 126   3            t_out++;
 127   3            ti_restart = 0;
 128   3            }
 129   2          else
 130   2            {
 131   3            ti_restart = 1;
 132   3            }
 133   2          }
 134   1      }
 135          
 136          /*------------------------------------------------------------------------------
 137          ------------------------------------------------------------------------------*/
 138          #pragma disable
 139          
 140          void com_initialize (void)
 141          {
 142   1        /*------------------------------------------------
 143   1        Setup TIMER1 to generate the proper baud rate.
 144   1        ------------------------------------------------*/
 145   1        com_baudrate (9600);
 146   1      
 147   1        /*------------------------------------------------
 148   1        Clear com buffer indexes.
 149   1        ------------------------------------------------*/
 150   1        t_in = 0;
 151   1        t_out = 0;
 152   1      
 153   1        r_in = 0;
 154   1        r_out = 0;
 155   1      
 156   1        RI = 0;             /* clear receiver interrupt */
 157   1        TI = 0;             /* clear transmit interrupt */
 158   1        ti_restart = 1;
 159   1      
 160   1        ES = 1;             /* enable serial interrupts */
 161   1      }
 162          
 163          /*------------------------------------------------------------------------------
 164          ------------------------------------------------------------------------------*/
 165          #pragma disable
 166          
 167          sfr CKCON = 0x8E;                     // Clock Control
 168          
 169          void com_baudrate (
 170            unsigned long baudrate)
 171          {
 172   1        /*------------------------------------------------
 173   1        Clear transmit interrupt and buffer.
 174   1        ------------------------------------------------*/
 175   1        TI = 0;             /* clear transmit interrupt */
 176   1        t_in = 0;           /* empty transmit buffer */
 177   1        t_out = 0;
C51 COMPILER V9.59.0.0   SIO                                                               05/16/2021 20:20:32 PAGE 4   

 178   1      
 179   1        /*------------------------------------------------
 180   1        Set timer 1 up as a baud rate generator.
 181   1        ------------------------------------------------*/
 182   1        TR1 = 0;            /* stop timer 1 */
 183   1        ET1 = 0;            /* disable timer 1 interrupt */
 184   1      
 185   1        SCON = 0x10;                       // SCON0: 8-bit variable bit rate, level of STOP bit is ignored, RX e
             -nabled
 186   1                                             //        ninth bits are zeros, clear RI0 and TI0 bits
 187   1         if (SYSCLK/baudrate/2/256 < 1) {
 188   2            TH1 = -(SYSCLK/baudrate/2);
 189   2            CKCON &= ~0x0B;                  // T1M = 1; SCA1:0 = xx
 190   2            CKCON |=  0x08;
 191   2         } else if (SYSCLK/baudrate/2/256 < 4) {
 192   2            TH1 = -(SYSCLK/baudrate/2/4);
 193   2            CKCON &= ~0x0B;                  // T1M = 0; SCA1:0 = 01
 194   2            CKCON |=  0x01;
 195   2         } else if (SYSCLK/baudrate/2/256 < 12) {
 196   2            TH1 = -(SYSCLK/baudrate/2/12);
 197   2            CKCON &= ~0x0B;                  // T1M = 0; SCA1:0 = 00
 198   2         } else {
 199   2            TH1 = -(SYSCLK/baudrate/2/48);
 200   2            CKCON &= ~0x0B;                  // T1M = 0; SCA1:0 = 10
 201   2            CKCON |=  0x02;
 202   2         }
 203   1      
 204   1         TL1 = TH1;                          // init Timer1
 205   1         TMOD &= ~0xf0;                      // TMOD: timer 1 in 8-bit autoreload
 206   1         TMOD |=  0x20;
 207   1         TR1 = 1;                            // START Timer1
 208   1         IP |= 0x10;                         // Make UART high priority
 209   1         ES = 1;                            // Enable UART0 interrupts
 210   1      }
 211          
 212          /*------------------------------------------------------------------------------
 213          ------------------------------------------------------------------------------*/
 214          #pragma disable
 215          
 216          char com_putchar (
 217            unsigned char c)
 218          {
 219   1        /*------------------------------------------------
 220   1        If the buffer is full, return an error value.
 221   1        ------------------------------------------------*/
 222   1        if (com_tbuflen () >= TBUF_SIZE)
 223   1          return (-1);
 224   1      
 225   1        /*------------------------------------------------
 226   1        Add the data to the transmit buffer.  If the
 227   1        transmit interrupt is disabled, then enable it.
 228   1        ------------------------------------------------*/
 229   1        tbuf [t_in & (TBUF_SIZE - 1)] = c;
 230   1        t_in++;
 231   1      
 232   1        if (ti_restart)
 233   1          {
 234   2          ti_restart = 0;
 235   2          TI = 1;               /* generate transmit interrupt */
 236   2          }
 237   1      
 238   1        return (0);
C51 COMPILER V9.59.0.0   SIO                                                               05/16/2021 20:20:32 PAGE 5   

 239   1      }
 240          
 241          /*------------------------------------------------------------------------------
 242          ------------------------------------------------------------------------------*/
 243          #pragma disable
 244          
 245          int com_getchar (void)
 246          {
 247   1        if (com_rbuflen () == 0)
 248   1          return (-1);
 249   1      
 250   1        return (rbuf [(r_out++) & (RBUF_SIZE - 1)]);
 251   1      }
 252          
 253          /*------------------------------------------------------------------------------
 254          ------------------------------------------------------------------------------*/
 255          #pragma disable
 256          
 257          unsigned char com_rbuflen (void)
 258          {
 259   1        return (r_in - r_out);
 260   1      }
 261          
 262          /*------------------------------------------------------------------------------
 263          ------------------------------------------------------------------------------*/
 264          #pragma disable
 265          
 266          unsigned char com_tbuflen (void)
 267          {
 268   1        return (t_in - t_out);
 269   1      }
 270          
 271          #pragma disable
 272          int com_write(unsigned char* buf, int size)
 273          {
 274   1        int i;
 275   1        
 276   1        for(i=0; i < size; i++){
 277   2          com_putchar(buf[i]);
 278   2        }
 279   1        
 280   1        return size;
 281   1      }
 282          
 283          /*------------------------------------------------------------------------------
 284          ------------------------------------------------------------------------------*/
 285          


MODULE INFORMATION:   STATIC OVERLAYABLE
   CODE SIZE        =    751    ----
   CONSTANT SIZE    =   ----    ----
   XDATA SIZE       =   ----    ----
   PDATA SIZE       =   ----    ----
   DATA SIZE        =      4      15
   IDATA SIZE       =     32    ----
   BIT SIZE         =      1    ----
END OF MODULE INFORMATION.


C51 COMPILATION COMPLETE.  0 WARNING(S),  0 ERROR(S)
